
LAB4.elf:     file format elf32-avr

Sections:
Idx Name          Size      VMA       LMA       File off  Algn
  0 .data         0000000a  00800100  0000025e  000002f2  2**0
                  CONTENTS, ALLOC, LOAD, DATA
  1 .text         0000025e  00000000  00000000  00000094  2**1
                  CONTENTS, ALLOC, LOAD, READONLY, CODE
  2 .bss          00000006  0080010a  0080010a  000002fc  2**0
                  ALLOC
  3 .comment      00000030  00000000  00000000  000002fc  2**0
                  CONTENTS, READONLY
  4 .note.gnu.avr.deviceinfo 00000040  00000000  00000000  0000032c  2**2
                  CONTENTS, READONLY
  5 .debug_aranges 000000a0  00000000  00000000  0000036c  2**0
                  CONTENTS, READONLY, DEBUGGING
  6 .debug_info   000009de  00000000  00000000  0000040c  2**0
                  CONTENTS, READONLY, DEBUGGING
  7 .debug_abbrev 00000719  00000000  00000000  00000dea  2**0
                  CONTENTS, READONLY, DEBUGGING
  8 .debug_line   000004de  00000000  00000000  00001503  2**0
                  CONTENTS, READONLY, DEBUGGING
  9 .debug_frame  0000011c  00000000  00000000  000019e4  2**2
                  CONTENTS, READONLY, DEBUGGING
 10 .debug_str    0000041f  00000000  00000000  00001b00  2**0
                  CONTENTS, READONLY, DEBUGGING
 11 .debug_loc    000000b1  00000000  00000000  00001f1f  2**0
                  CONTENTS, READONLY, DEBUGGING
 12 .debug_ranges 00000080  00000000  00000000  00001fd0  2**0
                  CONTENTS, READONLY, DEBUGGING

Disassembly of section .text:

00000000 <__vectors>:
   0:	0c 94 34 00 	jmp	0x68	; 0x68 <__ctors_end>
   4:	0c 94 51 00 	jmp	0xa2	; 0xa2 <__bad_interrupt>
   8:	0c 94 51 00 	jmp	0xa2	; 0xa2 <__bad_interrupt>
   c:	0c 94 51 00 	jmp	0xa2	; 0xa2 <__bad_interrupt>
  10:	0c 94 51 00 	jmp	0xa2	; 0xa2 <__bad_interrupt>
  14:	0c 94 51 00 	jmp	0xa2	; 0xa2 <__bad_interrupt>
  18:	0c 94 51 00 	jmp	0xa2	; 0xa2 <__bad_interrupt>
  1c:	0c 94 51 00 	jmp	0xa2	; 0xa2 <__bad_interrupt>
  20:	0c 94 51 00 	jmp	0xa2	; 0xa2 <__bad_interrupt>
  24:	0c 94 51 00 	jmp	0xa2	; 0xa2 <__bad_interrupt>
  28:	0c 94 51 00 	jmp	0xa2	; 0xa2 <__bad_interrupt>
  2c:	0c 94 51 00 	jmp	0xa2	; 0xa2 <__bad_interrupt>
  30:	0c 94 51 00 	jmp	0xa2	; 0xa2 <__bad_interrupt>
  34:	0c 94 51 00 	jmp	0xa2	; 0xa2 <__bad_interrupt>
  38:	0c 94 51 00 	jmp	0xa2	; 0xa2 <__bad_interrupt>
  3c:	0c 94 51 00 	jmp	0xa2	; 0xa2 <__bad_interrupt>
  40:	0c 94 7e 00 	jmp	0xfc	; 0xfc <__vector_16>
  44:	0c 94 51 00 	jmp	0xa2	; 0xa2 <__bad_interrupt>
  48:	0c 94 51 00 	jmp	0xa2	; 0xa2 <__bad_interrupt>
  4c:	0c 94 51 00 	jmp	0xa2	; 0xa2 <__bad_interrupt>
  50:	0c 94 51 00 	jmp	0xa2	; 0xa2 <__bad_interrupt>
  54:	0c 94 51 00 	jmp	0xa2	; 0xa2 <__bad_interrupt>
  58:	0c 94 51 00 	jmp	0xa2	; 0xa2 <__bad_interrupt>
  5c:	0c 94 51 00 	jmp	0xa2	; 0xa2 <__bad_interrupt>
  60:	0c 94 51 00 	jmp	0xa2	; 0xa2 <__bad_interrupt>
  64:	0c 94 51 00 	jmp	0xa2	; 0xa2 <__bad_interrupt>

00000068 <__ctors_end>:
  68:	11 24       	eor	r1, r1
  6a:	1f be       	out	0x3f, r1	; 63
  6c:	cf ef       	ldi	r28, 0xFF	; 255
  6e:	d8 e0       	ldi	r29, 0x08	; 8
  70:	de bf       	out	0x3e, r29	; 62
  72:	cd bf       	out	0x3d, r28	; 61

00000074 <__do_copy_data>:
  74:	11 e0       	ldi	r17, 0x01	; 1
  76:	a0 e0       	ldi	r26, 0x00	; 0
  78:	b1 e0       	ldi	r27, 0x01	; 1
  7a:	ee e5       	ldi	r30, 0x5E	; 94
  7c:	f2 e0       	ldi	r31, 0x02	; 2
  7e:	02 c0       	rjmp	.+4      	; 0x84 <__do_copy_data+0x10>
  80:	05 90       	lpm	r0, Z+
  82:	0d 92       	st	X+, r0
  84:	aa 30       	cpi	r26, 0x0A	; 10
  86:	b1 07       	cpc	r27, r17
  88:	d9 f7       	brne	.-10     	; 0x80 <__do_copy_data+0xc>

0000008a <__do_clear_bss>:
  8a:	21 e0       	ldi	r18, 0x01	; 1
  8c:	aa e0       	ldi	r26, 0x0A	; 10
  8e:	b1 e0       	ldi	r27, 0x01	; 1
  90:	01 c0       	rjmp	.+2      	; 0x94 <.do_clear_bss_start>

00000092 <.do_clear_bss_loop>:
  92:	1d 92       	st	X+, r1

00000094 <.do_clear_bss_start>:
  94:	a0 31       	cpi	r26, 0x10	; 16
  96:	b2 07       	cpc	r27, r18
  98:	e1 f7       	brne	.-8      	; 0x92 <.do_clear_bss_loop>
  9a:	0e 94 0c 01 	call	0x218	; 0x218 <main>
  9e:	0c 94 2d 01 	jmp	0x25a	; 0x25a <_exit>

000000a2 <__bad_interrupt>:
  a2:	0c 94 00 00 	jmp	0	; 0x0 <__vectors>

000000a6 <init_LED>:
	{
		TCNT0 = 0;						// init count
		while((TIFR0 & (1<<TOV0))==0);	// wait overflow
		TIFR0 |= (1<<TOV0);				// clear the overflow flag (by writing a '1'!)
	}
}
  a6:	25 9a       	sbi	0x04, 5	; 4
  a8:	08 95       	ret

000000aa <init_TC0_ints>:
  aa:	14 bc       	out	0x24, r1	; 36
  ac:	85 b5       	in	r24, 0x25	; 37
  ae:	83 60       	ori	r24, 0x03	; 3
  b0:	85 bd       	out	0x25, r24	; 37
  b2:	ee e6       	ldi	r30, 0x6E	; 110
  b4:	f0 e0       	ldi	r31, 0x00	; 0
  b6:	80 81       	ld	r24, Z
  b8:	81 60       	ori	r24, 0x01	; 1
  ba:	80 83       	st	Z, r24
  bc:	78 94       	sei
  be:	08 95       	ret

000000c0 <init_TC2>:
  c0:	10 92 b0 00 	sts	0x00B0, r1	; 0x8000b0 <__DATA_REGION_ORIGIN__+0x50>
  c4:	e1 eb       	ldi	r30, 0xB1	; 177
  c6:	f0 e0       	ldi	r31, 0x00	; 0
  c8:	80 81       	ld	r24, Z
  ca:	84 60       	ori	r24, 0x04	; 4
  cc:	80 83       	st	Z, r24
  ce:	08 95       	ret

000000d0 <delay_ms>:

void delay_ms(unsigned int mode){
	// generate a x ms delay (based on TC2)
	for (unsigned int i = 1; i <= mode; i++) // mode
  d0:	00 97       	sbiw	r24, 0x00	; 0
  d2:	69 f0       	breq	.+26     	; 0xee <delay_ms+0x1e>
  d4:	21 e0       	ldi	r18, 0x01	; 1
  d6:	30 e0       	ldi	r19, 0x00	; 0
	{
		TCNT2 = 0;						// init count
  d8:	e2 eb       	ldi	r30, 0xB2	; 178
  da:	f0 e0       	ldi	r31, 0x00	; 0
  dc:	10 82       	st	Z, r1
		while((TIFR2 & (1<<TOV2))==0);	// wait overflow
  de:	b8 9b       	sbis	0x17, 0	; 23
  e0:	fe cf       	rjmp	.-4      	; 0xde <delay_ms+0xe>
		TIFR2 |= (1<<TOV2);				// clear the overflow flag
  e2:	b8 9a       	sbi	0x17, 0	; 23
	}
}

void delay_ms(unsigned int mode){
	// generate a x ms delay (based on TC2)
	for (unsigned int i = 1; i <= mode; i++) // mode
  e4:	2f 5f       	subi	r18, 0xFF	; 255
  e6:	3f 4f       	sbci	r19, 0xFF	; 255
  e8:	82 17       	cp	r24, r18
  ea:	93 07       	cpc	r25, r19
  ec:	b8 f7       	brcc	.-18     	; 0xdc <delay_ms+0xc>
  ee:	08 95       	ret

000000f0 <setLED>:
	}
}

void setLED(bool state){
	
	if (state)
  f0:	88 23       	and	r24, r24
  f2:	11 f0       	breq	.+4      	; 0xf8 <setLED+0x8>
		PORTB |= 0x20;	// PB5=1 -> LED ON
  f4:	2d 9a       	sbi	0x05, 5	; 5
  f6:	08 95       	ret
	else
		PORTB &= 0xDF;	// PB5=0 -> LED OFF
  f8:	2d 98       	cbi	0x05, 5	; 5
  fa:	08 95       	ret

000000fc <__vector_16>:
 int do_a = 1, do_b = 1, do_c = 0; //flags
unsigned int a_time = 250, b_time = 500, c_time = 1000; //computing times


ISR(TIMER0_OVF_vect)
{
  fc:	1f 92       	push	r1
  fe:	0f 92       	push	r0
 100:	0f b6       	in	r0, 0x3f	; 63
 102:	0f 92       	push	r0
 104:	11 24       	eor	r1, r1
 106:	8f 93       	push	r24
 108:	9f 93       	push	r25
	
	TIFR0 |= (1 << TOV0);	//reset overflow flag
 10a:	a8 9a       	sbi	0x15, 0	; 21
	of_count++;				//Increase counter that controls time
 10c:	80 91 0c 01 	lds	r24, 0x010C	; 0x80010c <of_count>
 110:	90 91 0d 01 	lds	r25, 0x010D	; 0x80010d <of_count+0x1>
 114:	01 96       	adiw	r24, 0x01	; 1
 116:	90 93 0d 01 	sts	0x010D, r25	; 0x80010d <of_count+0x1>
 11a:	80 93 0c 01 	sts	0x010C, r24	; 0x80010c <of_count>
							//since last multiple of 250ms
	if (of_count == 250) {
 11e:	8a 3f       	cpi	r24, 0xFA	; 250
 120:	91 05       	cpc	r25, r1
 122:	09 f0       	breq	.+2      	; 0x126 <__vector_16+0x2a>
 124:	45 c0       	rjmp	.+138    	; 0x1b0 <__vector_16+0xb4>

		cycle_num ++;
 126:	80 91 0e 01 	lds	r24, 0x010E	; 0x80010e <cycle_num>
 12a:	90 91 0f 01 	lds	r25, 0x010F	; 0x80010f <cycle_num+0x1>
 12e:	01 96       	adiw	r24, 0x01	; 1
 130:	90 93 0f 01 	sts	0x010F, r25	; 0x80010f <cycle_num+0x1>
 134:	80 93 0e 01 	sts	0x010E, r24	; 0x80010e <cycle_num>

		// raise flags if needed
		switch (cycle_num)
 138:	82 30       	cpi	r24, 0x02	; 2
 13a:	91 05       	cpc	r25, r1
 13c:	a9 f0       	breq	.+42     	; 0x168 <__vector_16+0x6c>
 13e:	1c f4       	brge	.+6      	; 0x146 <__vector_16+0x4a>
 140:	01 97       	sbiw	r24, 0x01	; 1
 142:	39 f0       	breq	.+14     	; 0x152 <__vector_16+0x56>
 144:	31 c0       	rjmp	.+98     	; 0x1a8 <__vector_16+0xac>
 146:	83 30       	cpi	r24, 0x03	; 3
 148:	91 05       	cpc	r25, r1
 14a:	c9 f0       	breq	.+50     	; 0x17e <__vector_16+0x82>
 14c:	04 97       	sbiw	r24, 0x04	; 4
 14e:	f1 f0       	breq	.+60     	; 0x18c <__vector_16+0x90>
 150:	2b c0       	rjmp	.+86     	; 0x1a8 <__vector_16+0xac>
		{
			case 1:

				do_a = 1;
 152:	81 e0       	ldi	r24, 0x01	; 1
 154:	90 e0       	ldi	r25, 0x00	; 0
 156:	90 93 09 01 	sts	0x0109, r25	; 0x800109 <do_a+0x1>
 15a:	80 93 08 01 	sts	0x0108, r24	; 0x800108 <do_a>
				do_c = 1;
 15e:	90 93 0b 01 	sts	0x010B, r25	; 0x80010b <__data_end+0x1>
 162:	80 93 0a 01 	sts	0x010A, r24	; 0x80010a <__data_end>

			break;
 166:	20 c0       	rjmp	.+64     	; 0x1a8 <__vector_16+0xac>

			case 2:

				do_a = 1;
 168:	81 e0       	ldi	r24, 0x01	; 1
 16a:	90 e0       	ldi	r25, 0x00	; 0
 16c:	90 93 09 01 	sts	0x0109, r25	; 0x800109 <do_a+0x1>
 170:	80 93 08 01 	sts	0x0108, r24	; 0x800108 <do_a>
				do_b = 1;
 174:	90 93 07 01 	sts	0x0107, r25	; 0x800107 <do_b+0x1>
 178:	80 93 06 01 	sts	0x0106, r24	; 0x800106 <do_b>

			break;
 17c:	15 c0       	rjmp	.+42     	; 0x1a8 <__vector_16+0xac>

			case 3:

				do_a = 1;
 17e:	81 e0       	ldi	r24, 0x01	; 1
 180:	90 e0       	ldi	r25, 0x00	; 0
 182:	90 93 09 01 	sts	0x0109, r25	; 0x800109 <do_a+0x1>
 186:	80 93 08 01 	sts	0x0108, r24	; 0x800108 <do_a>

			break;
 18a:	0e c0       	rjmp	.+28     	; 0x1a8 <__vector_16+0xac>

			case 4:

				do_a = 1;
 18c:	81 e0       	ldi	r24, 0x01	; 1
 18e:	90 e0       	ldi	r25, 0x00	; 0
 190:	90 93 09 01 	sts	0x0109, r25	; 0x800109 <do_a+0x1>
 194:	80 93 08 01 	sts	0x0108, r24	; 0x800108 <do_a>
				do_b = 1;
 198:	90 93 07 01 	sts	0x0107, r25	; 0x800107 <do_b+0x1>
 19c:	80 93 06 01 	sts	0x0106, r24	; 0x800106 <do_b>
				cycle_num = 0;
 1a0:	10 92 0f 01 	sts	0x010F, r1	; 0x80010f <cycle_num+0x1>
 1a4:	10 92 0e 01 	sts	0x010E, r1	; 0x80010e <cycle_num>

			break;
		}
		of_count = 0;
 1a8:	10 92 0d 01 	sts	0x010D, r1	; 0x80010d <of_count+0x1>
 1ac:	10 92 0c 01 	sts	0x010C, r1	; 0x80010c <of_count>
	}

	TCCR0B |= (1 << CS00); //restart timer
 1b0:	85 b5       	in	r24, 0x25	; 37
 1b2:	81 60       	ori	r24, 0x01	; 1
 1b4:	85 bd       	out	0x25, r24	; 37

}
 1b6:	9f 91       	pop	r25
 1b8:	8f 91       	pop	r24
 1ba:	0f 90       	pop	r0
 1bc:	0f be       	out	0x3f, r0	; 63
 1be:	0f 90       	pop	r0
 1c0:	1f 90       	pop	r1
 1c2:	18 95       	reti

000001c4 <task_A>:

void task_A(){

	//definition of task_A
	setLED(1); //turn on the led
 1c4:	81 e0       	ldi	r24, 0x01	; 1
 1c6:	0e 94 78 00 	call	0xf0	; 0xf0 <setLED>
	delay_ms(a_time);
 1ca:	80 91 04 01 	lds	r24, 0x0104	; 0x800104 <a_time>
 1ce:	90 91 05 01 	lds	r25, 0x0105	; 0x800105 <a_time+0x1>
 1d2:	0e 94 68 00 	call	0xd0	; 0xd0 <delay_ms>
	do_a = 0;
 1d6:	10 92 09 01 	sts	0x0109, r1	; 0x800109 <do_a+0x1>
 1da:	10 92 08 01 	sts	0x0108, r1	; 0x800108 <do_a>
 1de:	08 95       	ret

000001e0 <task_B>:
}

void task_B(){

	//definition of task_B
	setLED(0); //turn off the led
 1e0:	80 e0       	ldi	r24, 0x00	; 0
 1e2:	0e 94 78 00 	call	0xf0	; 0xf0 <setLED>
	do_b = 0;
 1e6:	10 92 07 01 	sts	0x0107, r1	; 0x800107 <do_b+0x1>
 1ea:	10 92 06 01 	sts	0x0106, r1	; 0x800106 <do_b>
	delay_ms(b_time);
 1ee:	80 91 02 01 	lds	r24, 0x0102	; 0x800102 <b_time>
 1f2:	90 91 03 01 	lds	r25, 0x0103	; 0x800103 <b_time+0x1>
 1f6:	0e 94 68 00 	call	0xd0	; 0xd0 <delay_ms>
 1fa:	08 95       	ret

000001fc <task_C>:
}

void task_C(){

	//definition of task_C
	setLED(0); //turn off the led
 1fc:	80 e0       	ldi	r24, 0x00	; 0
 1fe:	0e 94 78 00 	call	0xf0	; 0xf0 <setLED>
	delay_ms(c_time);
 202:	80 91 00 01 	lds	r24, 0x0100	; 0x800100 <__data_start>
 206:	90 91 01 01 	lds	r25, 0x0101	; 0x800101 <__data_start+0x1>
 20a:	0e 94 68 00 	call	0xd0	; 0xd0 <delay_ms>
	do_c = 0;
 20e:	10 92 0b 01 	sts	0x010B, r1	; 0x80010b <__data_end+0x1>
 212:	10 92 0a 01 	sts	0x010A, r1	; 0x80010a <__data_end>
 216:	08 95       	ret

00000218 <main>:
// main program
//--------------

int main(void)
{
	init_LED();
 218:	0e 94 53 00 	call	0xa6	; 0xa6 <init_LED>
	init_TC0_ints();
 21c:	0e 94 55 00 	call	0xaa	; 0xaa <init_TC0_ints>
	init_TC2();
 220:	0e 94 60 00 	call	0xc0	; 0xc0 <init_TC2>
	
	// forever loop
	while(1){
		
		if (do_a) {
 224:	80 91 08 01 	lds	r24, 0x0108	; 0x800108 <do_a>
 228:	90 91 09 01 	lds	r25, 0x0109	; 0x800109 <do_a+0x1>
 22c:	89 2b       	or	r24, r25
 22e:	19 f0       	breq	.+6      	; 0x236 <main+0x1e>
			task_A();
 230:	0e 94 e2 00 	call	0x1c4	; 0x1c4 <task_A>
 234:	f7 cf       	rjmp	.-18     	; 0x224 <main+0xc>
		}

		else if (do_b) {
 236:	80 91 06 01 	lds	r24, 0x0106	; 0x800106 <do_b>
 23a:	90 91 07 01 	lds	r25, 0x0107	; 0x800107 <do_b+0x1>
 23e:	89 2b       	or	r24, r25
 240:	19 f0       	breq	.+6      	; 0x248 <main+0x30>
			task_B();
 242:	0e 94 f0 00 	call	0x1e0	; 0x1e0 <task_B>
 246:	ee cf       	rjmp	.-36     	; 0x224 <main+0xc>
		}

		else if (do_c) {
 248:	80 91 0a 01 	lds	r24, 0x010A	; 0x80010a <__data_end>
 24c:	90 91 0b 01 	lds	r25, 0x010B	; 0x80010b <__data_end+0x1>
 250:	89 2b       	or	r24, r25
 252:	41 f3       	breq	.-48     	; 0x224 <main+0xc>
			task_C();
 254:	0e 94 fe 00 	call	0x1fc	; 0x1fc <task_C>
 258:	e5 cf       	rjmp	.-54     	; 0x224 <main+0xc>

0000025a <_exit>:
 25a:	f8 94       	cli

0000025c <__stop_program>:
 25c:	ff cf       	rjmp	.-2      	; 0x25c <__stop_program>
